:020000040800F2
:100000000000022041260008D9250008DB25000851
:10001000DD250008DF250008E125000800000000BC
:10002000000000000000000000000000E3250008C0
:10003000E525000800000000E7250008E925000884
:1000400091260008912600089126000891260008B4
:1000500091260008912600089126000891260008A4
:100060009126000891260008912600089126000894
:100070009126000891260008912600089126000884
:100080009126000891260008912600089126000874
:100090009126000891260008912600089126000864
:1000A0009126000891260008912600089126000854
:1000B0009126000891260008912600089126000844
:1000C0009126000891260008912600089126000834
:1000D0009126000891260008912600089126000824
:1000E0009126000891260008912600089126000814
:1000F0009126000891260008912600089126000804
:1001000091260008912600089126000891260008F3
:1001100091260008912600089126000891260008E3
:1001200091260008912600089126000891260008D3
:100130009126000800000000000000009126000841
:1001400091260008912600089126000891260008B3
:1001500091260008912600089126000891260008A3
:100160009126000891260008912600089126000893
:100170009126000891260008912600080000000042
:1001800000000000912600080000000000000000B0
:1001900091260008000000000000000091260008E1
:1001A0000000000000000000000000009126000890
:1001B0009126000891260008912600089126000843
:0401C000912600087C
:1001D00010B5054C237833B9044B13B10448AFF381
:1001E00000800123237010BD70000020000000007B
:1001F000342F00080C4B43B10C480D4910B5AFF338
:1002000000800C48036823B910BD0A48036833B95D
:100210007047094B002BF7D0BDE810401847064B3C
:10022000002BF5D0184700BF00000000342F000855
:1002300074000020700000200000000053B94AB98B
:10024000002908BF00281CBF4FF0FF314FF0FF30DE
:1002500000F07AB9ADF1080C6DE904CE00F006F8B3
:10026000DDF804E0DDE9022304B070472DE9F04732
:100270008C460D460446089E002B51D18A421746F3
:100280006DD9B2FA82FEBEF1000F0BD0CEF1200C78
:1002900001FA0EF520FA0CFC02FA0EF74CEA050CF6
:1002A00000FA0EF44FEA174A250CBCFBFAF81FFAC5
:1002B00087F90AFB18CC45EA0C4508FB09F3AB4269
:1002C0000AD9ED1908F1FF3280F02381AB4240F2E8
:1002D0002081A8F102083D44ED1AA4B2B5FBFAF062
:1002E0000AFB105544EA054400FB09F9A14509D968
:1002F000E41900F1FF3380F00A81A14540F2078143
:1003000002383C44A4EB090440EA08400021002ED6
:1003100061D024FA0EF4002334607360BDE8F087E6
:100320008B4207D9002E54D0002186E821000846D0
:10033000BDE8F087B3FA83F1002940F08E80AB422C
:1003400002D3824200F2FA80841A65EB0305012091
:10035000AC46002E3FD086E81010BDE8F08712B9F9
:100360000127B7FBF2F7B7FA87FEBEF1000F34D1D1
:10037000EB1B3A0C1FFA87FC0121B3FBF2F8250CAA
:1003800002FB183345EA03450CFB08F3AB4207D9DF
:10039000ED1908F1FF3002D2AB4200F2D180804665
:1003A000ED1AA3B2B5FBF2F002FB105543EA054487
:1003B0000CFB00FCA44507D9E41900F1FF3302D27D
:1003C000A44500F2B8801846A4EB0C0440EA0840AB
:1003D0009DE731463046BDE8F087CEF1200405FAAE
:1003E0000EF307FA0EF720FA04F83A0C25FA04F493
:1003F00048EA0308B4FBF2F14FEA184502FB114446
:100400001FFA87FC45EA044501FB0CF3AB4200FAF6
:100410000EF409D9ED1901F1FF3080F08A80AB426A
:1004200040F2878002393D44EB1A1FFA88F5B3FB8E
:10043000F2F002FB103345EA034500FB0CF3AB423C
:1004400007D9ED1900F1FF386FD2AB426DD90238F0
:100450003D44EB1A40EA01418FE7C1F1200722FA3F
:1004600007F88B4005FA01F448EA030320FA07FE77
:100470004FEA134CFD404EEA040EB5FBFCF94FEA7F
:100480001E440CFB19551FFA83F844EA054509FB85
:1004900008F4AC4202FA01F200FA01FA08D9ED18A8
:1004A00009F1FF3043D2AC4241D9A9F102091D4400
:1004B0002D1B1FFA8EFEB5FBFCF00CFB10554EEA0F
:1004C000054400FB08F8A04507D9E41800F1FF3502
:1004D00029D2A04527D902381C4440EA0940A4EBA0
:1004E0000804A0FB02894C45C6464D4615D312D0E0
:1004F00056B1BAEB0E0364EB050404FA07F7CB40E0
:100500001F43CC40376074600021BDE8F087184677
:10051000F8E69046E0E6C245EAD2B8EB020E69EB97
:1005200003050138E4E72846D7E7404691E78146CE
:10053000BEE7014678E702383C4445E7084608E74D
:10054000A8F102083D442BE7704700BF034613F8AB
:10055000012B002AFBD1181A013870470000000057
:1005600001F0FF01102A2BDB10F0070F08D010F864
:10057000013B013A8B422DD010F0070F42B3F6D168
:10058000F0B441EA012141EA014122F007047FF081
:1005900000070023F0E80256083C85EA010586EAD8
:1005A000010685FA47F5A3FA87F586FA47F6A5FA14
:1005B00087F68EB9EED1F0BC01F0FF0102F0070220
:1005C00032B110F8013B013A83EA010313B1F8D1CB
:1005D0000020704701387047002D06BF35460338AC
:1005E000073815F0010F07D1013015F4807F02BFE5
:1005F000013015F4C03F0130F0BC0138704700BF36
:1006000010B504460E4B18784FF47A73B3FBF0F331
:100610000C4A1068B0FBF3F000F022FB68B90F2C15
:1006200001D9012010BD002221464FF0FF3000F01B
:10063000E5FA034B5C60002010BD012010BD00BF37
:10064000000000200800002008B50B4B1A6842F497
:1006500000721A601A6842F480621A601A6842F4E2
:1006600080721A60032000F0B7FA0020FFF7C8FF7D
:1006700001F0CAFE002008BD003C0240034A116898
:10068000034B1B780B441360704700BF9800002099
:1006900000000020014B1868704700BF9800002040
:1006A00038B50446FFF7F6FF0546B4F1FF3F02D028
:1006B000044B1B781C44FFF7EDFF401B8442FAD823
:1006C00038BD00BF00000020494B5A6822F4403278
:1006D0005A605A6841680A435A600268536823F4B2
:1006E0008073536002685368016943EA01235360D1
:1006F0000268536823F0407353600268536881684E
:100700000B4353600268936823F4006393600268AC
:100710009368C1680B439360826A364B9A4249D012
:100720000268936823F07063936002689368816A3B
:100730000B4393600268936823F040539360026810
:100740009368C16A0B4393600268936823F00203C5
:10075000936002689368816943EA41039360036A86
:10076000002B32D10268536823F40063536002689F
:10077000D36A23F47003D3620168CB6AC269013A79
:1007800043EA0253CB620268936823F400739360D8
:1007900002689368016B43EA41239360026893689F
:1007A00023F48063936002689368416943EA81237C
:1007B000936070470268936823F0706393600268E7
:1007C000936823F040539360BEE70268536843F494
:1007D000006353600268536823F460435360016808
:1007E0004B68426A013A43EA42334B60BFE700BFBD
:1007F000002301400100000F30B310B50446036C24
:1008000043B1236C13F0100F0AD00120002384F8A9
:100810003C3010BD436480F83C3001F03FFEF0E70F
:10082000236C23F4885323F0020343F00203236470
:100830002046FFF749FF00206064236C23F0030388
:1008400043F001032364E1E70120704782B00023F5
:10085000019390F83C30012B63D0012380F83C30A9
:1008600003689A6812F0010F13D19A6842F00102EE
:100870009A60304B1B68304AA2FB03239B0C03EBAE
:100880004303019302E0019B013B0193019B002B79
:10089000F9D10268936813F0010F45D0036C23F47B
:1008A000E06323F0010343F480730364536813F49B
:1008B000806F05D0036C23F4405343F480530364EA
:1008C000036C13F4805F19D0436C23F00603436478
:1008D000002380F83C306FF022031360174B5B68F5
:1008E00013F01F0F0DD103689A6812F0405F1DD1FD
:1008F0009A6842F080429A60002013E0002343642B
:10090000E6E703680E4A934201D000200AE09A68A5
:1009100012F0405F0CD19A6842F080429A60002049
:1009200000E0022002B070470020FBE70020F9E75A
:100930000020F7E70800002083DE1B43002301406E
:100940000020014090F83C30012B19D0012380F8A1
:100950003C300268936823F00103936003689B684E
:1009600013F0010F07D1036C23F4885323F0010324
:1009700043F001030364002380F83C3018467047BD
:100980000220704703689A6812F4806F03D09B6856
:1009900013F4807F1CD170B50D460446FFF77AFE34
:1009A000064623681A6812F0020F1AD1B5F1FF3F0C
:1009B000F7D025B1FFF76EFE801B8542F1D2236C84
:1009C00043F004032364002384F83C30032070BD0B
:1009D000036C43F020030364002380F83C300120C3
:1009E00070476FF012021A60236C43F400732364A3
:1009F00023689A6812F0405F17D1A269BAB9DA6A1F
:100A000012F4700F03D09B6813F4806F11D1236C24
:100A100023F480732364236C13F4805F0BD1236C65
:100A200043F001032364002070BD002070BD00204E
:100A300070BD002070BD002070BD0368D86C704789
:100A400030B482B00023019390F83C30012B00F0C9
:100A5000B580012380F83C300B68092B3ED905682E
:100A6000EA689BB203EB43031E3B072404FA03F33B
:100A700022EA0303EB600568EA688C680B8803EBE5
:100A800043031E3B04FA03F31343EB604B68062B4E
:100A90003AD805686A6B03EB8303053B1F2404FA0D
:100AA00003F322EA03036B6305686A6B4B6803EB8D
:100AB0008303053B0C8804FA03F313436B6302685A
:100AC0003F4B9A4250D002683D4B9A4255D000238A
:100AD00080F83C30184602B030BC704705682A697F
:100AE0009BB203EB4303072404FA03F322EA030354
:100AF0002B6105682A698C680B8803EB430304FAB1
:100B000003F313432B61C1E70C2B16D805682A6B3E
:100B100003EB8303233B1F2404FA03F322EA0303BA
:100B20002B6305682A6B4B6803EB8303233B0C881C
:100B300004FA03F313432B63C1E70568EA6A03EB86
:100B40008303413B1F2404FA03F322EA0303EB620D
:100B50000568EA6A4B6803EB8303413B0C8804FA9F
:100B600003F31343EB62AAE70B68122BABD1154AD0
:100B7000536843F480035360A5E70B68124A93421D
:100B800001D0112BA3D10F4A536843F400035360E3
:100B90000A680D4B9A429AD10C4B1B680C4AA2FB77
:100BA00003239B0C03EB83035A00019202E0019B99
:100BB000013B0193019B002BF9D188E702208AE7D2
:100BC0000020014000230140120000100800002016
:100BD00083DE1B43006C7047074AD36823F4E0634D
:100BE0001B041B0C000200F4E060184340F0BF60DF
:100BF00040F40030D060704700ED00E030B4164B98
:100C0000DB68C3F30223C3F10704042C28BF0424C8
:100C10001D1D062D17D9033B012505FA04F4013CDF
:100C20002140994005FA03F3013B13401943002882
:100C30000BDB0901C9B200F1604000F5614080F8AA
:100C4000001330BC70470023E6E700F00F000901F5
:100C5000C9B2024B1954F4E700ED00E014ED00E0D6
:100C60000138B0F1807F0AD2064B5860F021064A65
:100C700082F823100020986007221A607047012034
:100C8000704700BF10E000E000ED00E0042805D050
:100C9000054A136823F0040313607047024A13687F
:100CA00043F004031360704710E000E0704708B59C
:100CB000FFF7FCFF08BD0000F0B583B0002498E00A
:100CC0004FEAD40E0EF1080E50F82E2004F007065D
:100CD000B6000F27B74022EA07020F6907FA06F6A7
:100CE000324340F82E2094E086681640CF6807FA19
:100CF0000EF73E438660466826EA03034E68C6F355
:100D00000016A64033434360C3681A408B6803FA59
:100D10000EF31A43C2604B6813F0805F68D0002363
:100D20000193514B5A6C42F480425A645B6C03F459
:100D300080430193019BA3089E1C4C4A52F8262035
:100D400004F003064FEA860E0F2606FA0EF622EA94
:100D50000602474FB84279D0464EB04278D006F5E9
:100D60008066B04276D006F58066B04274D006F553
:100D70008066B04272D006F58066B04270D006F54B
:100D80008066B04260D0072606FA0EF63243023380
:100D9000364E46F82320384B1A68EB4302EA030626
:100DA0004F6817F4803F01D045EA0206324A1660C8
:100DB000526803EA02064F6817F4003F01D045EA83
:100DC00002062D4A5660926803EA02064F6817F43D
:100DD000801F01D045EA0206274A9660D268134078
:100DE0004E6816F4001F01D045EA0203224AD36080
:100DF00001340F2C36D80123A3400A6803EA020508
:100E0000AB42F5D14A68022A3FF45AAF122A3FF4A6
:100E100057AF06684FEA440E032202FA0EF2D2439D
:100E200016404F6807F0030707FA0EF73E430660C7
:100E30004E68771E012F7FF657AF112E3FF454AF47
:100E4000122E7FF461AF4FE706269DE700269BE751
:100E5000012699E7022697E7032695E7042693E7FC
:100E6000052691E703B0F0BD00380240003801408C
:100E70000000024000040240003C014012B9090495
:100E8000816170478161704703685A6912F4806F0D
:100E90000DD06FF480625A6104230364002303635E
:100EA000202280F83D2080F83C300120704700204F
:100EB0007047F8B506460C4617461D461EE02DB194
:100EC000FFF7E8FB069BC01A854217D20023336365
:100ED000202286F83D2086F83E3086F83C300320FC
:100EE000F8BD33685B6924EA03039BB2B3FA83F36A
:100EF0005B09BB420FD1B5F1FF3FE0D1C4F307431B
:100F0000012BEED033689B6924EA03039BB2B3FA4A
:100F100083F35B09EDE70020F8BDF8B504460D4604
:100F200016461F4632E01A6842F400721A602368BF
:100F30006FF480625A610423236400232363202218
:100F400084F83D2084F83C300120F8BD26B1FFF73D
:100F5000A1FBC01B864219D200232363202284F800
:100F60003D2084F83C300320F8BD23685B6925EA06
:100F700003039BB2003318BF0123A3B123685A694E
:100F800012F4806FCFD1B6F1FF3FDFD1C5F3074335
:100F9000012BEAD023689B6925EA03039BB2003347
:100FA00018BF0123E9E70020F8BD0000F0B583B0C9
:100FB00004460F4615461E46C36A042B0DD0012B6E
:100FC0000BD013F5803F08D0036B122B0AD10268B7
:100FD000136843F48073136004E02268136843F4D9
:100FE0008073136000962B4600224FF001112046BB
:100FF000FFF75FFF18B10323184603B0F0BD236964
:10100000B3F5804F12D02268FB1103F0060343F0C2
:10101000F003136133462A4611492046FFF77DFF4E
:10102000C0B1236C042B13D00323E5E7236807F03A
:10103000FE071F6133462A460A492046FFF76DFF27
:1010400003460028D8D0236C042B07D00323D3E712
:101050000123D1E72368FFB21F61EBE70123CBE750
:10106000080001000200010070B504460D46164656
:1010700023685B6913F0800F19D12046FFF704FF46
:10108000B8B9B5F1FF3FF3D025B1FFF703FB801BE3
:101090008542EDD2236C43F02003236400232363B5
:1010A000202284F83D2084F83C30032070BD0020CD
:1010B00070BD012070BD70B504460D46164623680C
:1010C0005B6913F0040F19D12046FFF7DDFEB8B9B4
:1010D000B5F1FF3FF3D025B1FFF7DCFA801B854265
:1010E000EDD2236C43F020032364002323632022EA
:1010F00084F83D2084F83C30032070BD002070BD92
:10110000012070BD002800F0828038B5044690F8B8
:101110003D30002B41D0242384F83D3022681368F1
:1011200023F00103136000F0EFF93A4BA3FB002317
:101130009B0C2268536021686568374A954231D814
:1011400001330B6221686368334A934234D85B00F1
:10115000B0FBF3F0C0F30B03032B00D80420C861ED
:101160002268E369216A0B43136022682369E168FE
:101170000B43936022686369A1690B43D3602268C3
:10118000136843F00103136000202064202384F8D7
:101190003D30206384F83E0038BD80F83C3001F0DB
:1011A000ABF9B8E74FF4967202FB03F31B4AA2FBBC
:1011B00003239B090133C4E7A5688DB903EB430200
:1011C000B0FBF2F2C2F30B02B2FA82F25209E2B9B8
:1011D00095B903EB4303B0FBF3F040F40040BEE7E6
:1011E00003EB830202EB8202B0FBF2F2C2F30B02CA
:1011F000B2FA82F25209EAE703EB830303EB8303BB
:10120000B0FBF3F040F44040A9E70120A7E701203C
:10121000704700BF83DE1B43A0860100D34D6210E0
:101220002DE9F04184B004460D4690461F46FFF775
:1012300031FA94F83D30DBB2202B04D00225284649
:1012400004B0BDE8F08106460090192301225449FC
:101250002046FFF72EFE08B10225F0E794F83C3057
:10126000012B00F09A80012384F83C3023681A682F
:1012700012F0010F03D11A6842F001021A602268CD
:10128000136823F400631360212384F83D30102396
:1012900084F83E3000232364C4F824806785A3F5D6
:1012A0008033E362638D238533460A9A29462046BC
:1012B000FFF77CFE054660B1236C042B04D00023AD
:1012C00084F83C300325BAE7002384F83C3001253C
:1012D000B5E70023039323685A6903929B6903933C
:1012E000039B12E0236C042B01D00325A7E722689F
:1012F000136843F4007313600125A0E732460A998E
:101300002046FFF7D8FE00282DD1238D002B36D0A4
:1013100032460A992046FFF7A7FE0028E2D122684C
:10132000636A591C61621B781361638D9BB2013B38
:101330009BB26385238D013B9BB223852268516953
:1013400011F0040FDAD0002BD8D0636A591C616207
:101350001B781361638D9BB2013B9BB26385238D28
:10136000013B2385CAE7236C042B01D0032566E7E4
:101370002268136843F40073136001255FE7226855
:10138000136843F400731360202384F83D30002376
:1013900084F83E3084F83C3051E702254FE700BF27
:1013A00002001000002800F09D8070B504464F4BED
:1013B0001B6803F00F038B4209D2CBB24B4A137068
:1013C000136803F00F03994201D0012070BD236818
:1013D00013F0020F17D013F0040F04D0444A93689F
:1013E00043F4E0539360236813F0080F04D0404A9D
:1013F000936843F4604393603D4A936823F0F0039D
:10140000A068034393600D46236813F0010F32D0A8
:101410006368012B21D09A1E012A25D9344A12680B
:1014200012F0020F60D032498A6822F0030213439F
:101430008B60FFF72FF906462D4B9B6803F00C03DA
:101440006268B3EB820F16D0FFF724F9801B41F2DC
:1014500088339842F0D9032070BD254A126812F4EF
:10146000003FE0D1012070BD214A126812F0007FD8
:10147000D9D1012070BD1D4B1B6803F00F039D42A5
:1014800009D2EAB2194B1A701B6803F00F039D4290
:1014900001D0012070BD236813F0040F06D0144A58
:1014A000936823F4E053E1680B439360236813F0DF
:1014B000080F07D00E4A936823F46043216943EA7A
:1014C000C103936000F040F8094B9B68C3F303131A
:1014D000084AD35CD840084B18600020FFF790F80A
:1014E000002070BD01207047012070BD003C02400B
:1014F000003802407C2F000808000020014B1868CB
:10150000704700BF0800002008B5FFF7F7FF044B45
:101510009B68C3F38223034AD35CD84008BD00BF55
:10152000003802408C2F000808B5FFF7E7FF044B96
:101530009B68C3F34233034AD35CD84008BD00BF65
:10154000003802408C2F0008F8B5444B9B6803F02C
:101550000C03082B05D00C2B41D0042B7BD040482A
:10156000F8BD3E4B5A6802F03F025B6813F4800FEF
:1015700012D03A4B5968C1F3881100233948A1FBB6
:101580000001FEF75BFE354B5B68C3F3014301339B
:101590005B00B0FBF3F0F8BD304B5B68C3F388131E
:1015A0001E4600275C010025E41A65EB0705A9012A
:1015B00041EA9461A001001B61EB0501CB0043EA05
:1015C0005073C400A01943EB07018B0243EA905308
:1015D0008402204619460023FEF730FED3E71F4B56
:1015E0005A6802F03F025B6813F4800F10D01B4B67
:1015F0005968C1F3881100231A48A1FB0001FEF7C6
:101600001DFE164B5B68C3F30273B0FBF3F0F8BD2D
:10161000124B5B68C3F388131E4600275C0100254C
:10162000E41A65EB0705A90141EA9461A001001BDA
:1016300061EB0501CB0043EA5073C400A01943EBF2
:1016400007018B0243EA9053840220461946002387
:10165000FEF7F4FDD5E70348F8BD00BF00380240AF
:101660000024F40040787D0170B582B00446036820
:1016700013F0010F41D0A64B9B6803F00C03042B21
:1016800032D0A34B9B6803F00C03082B27D0A04B50
:101690009B6803F00C030C2B59D06368B3F5803FB3
:1016A0005BD0B3F5A02F5ED0994B1A6822F480323C
:1016B0001A601A6822F480221A606368002B5CD0DA
:1016C000FEF7E8FF0546924B1B6813F4003F14D168
:1016D000FEF7E0FF401B6428F5D903209DE18C4B09
:1016E0005B6813F4800FD2D0894B1B6813F4003F62
:1016F00003D06368002B00F08D81236813F0020F84
:1017000067D0834B9B6813F00C0F4AD0804B9B68CB
:1017100003F00C03082B3FD07D4B9B6803F00C03B8
:101720000C2B48D0E368002B74D00122794B1A604F
:10173000FEF7B0FF0546764B1B6813F0020F60D131
:10174000FEF7A8FF401B0228F5D9032065E1704B86
:101750005B6813F4800FA0D0C6E76D4A136843F4AA
:1017600080331360A9E76A4B1A6842F480221A603A
:101770001A6842F480321A609FE7FEF78BFF054635
:10178000634B1B6813F4003FB7D0FEF783FF401B89
:101790006428F5D9032040E15D4B5B6813F4800FAA
:1017A000BAD15B4B1B6813F0020F0AD0E368012B20
:1017B00007D0012031E1564B5B6813F4800FB1D1A3
:1017C000EFE7534A136823F0F803216943EAC103A2
:1017D0001360236813F0080F40D0636963B30122DC
:1017E0004D4B1A60FEF756FF0546494B5B6F13F0F1
:1017F000020F33D1FEF74EFF401B0228F5D903201C
:101800000BE1434A136823F0F803216943EAC1035B
:101810001360DEE700223F4B1A60FEF73BFF0546F0
:101820003B4B1B6813F0020FD3D0FEF733FF401B76
:101830000228F5D90320F0E00022374B1A60FEF7AA
:1018400029FF0546324B5B6F13F0020F06D0FEF7FF
:1018500021FF401B0228F5D90320DEE0236813F0A6
:10186000040F79D02A4B1B6C13F0805F33D1002317
:101870000193274B1A6C42F080521A641B6C03F0E0
:1018800080530193019B0125244B1B6813F4807F37
:1018900023D0A368012B34D0052B41D01C4B1A6FE9
:1018A00022F001021A671A6F22F004021A67A36875
:1018B000002B3FD0FEF7EEFE0646154B1B6F13F0D4
:1018C000020F48D1FEF7E6FE801B41F288339842B2
:1018D000F3D90320A1E00025D6E7104A136843F4AA
:1018E00080731360FEF7D6FE06460C4B1B6813F49C
:1018F000807FCED1FEF7CEFE801B0228F5D90320D3
:101900008BE0034A136F43F001031367CFE700BF77
:101910000038024000004742800E474200700040FD
:10192000404B1A6F42F004021A671A6F42F001022C
:101930001A67BCE7FEF7AEFE06463A4B1B6F13F084
:10194000020F08D0FEF7A6FE801B41F288339842B2
:10195000F3D9032061E0E5B9A369002B5CD0314ADB
:10196000926802F00C02082A59D0022B17D00022EC
:101970002D4B1A60FEF78EFE04462A4B1B6813F0AF
:10198000007F45D0FEF786FE001B0228F5D9032014
:1019900043E0244A136C23F080531364DCE70022F5
:1019A000214B1A60FEF776FE05461E4B1B6813F0AE
:1019B000007F06D0FEF76EFE401B0228F5D90320FB
:1019C0002BE0E369226A1343626A43EA8213A26A44
:1019D0005208013A43EA0243E26A43EA0263226B95
:1019E00043EA02730F4A536001220F4B1A60FEF75D
:1019F00051FE04460B4B1B6813F0007F06D1FEF727
:101A000049FE001B0228F5D9032006E0002004E06F
:101A1000002002E0012000E0002002B070BD0120A3
:101A2000FBE700BF00380240600047422DE9F04765
:101A300004460268136923F44053C1680B431361E1
:101A40000168CB6823F4164323F00C038268006915
:101A5000024360690243E06902431343CB6022689A
:101A6000536923F44073A1690B435361E369B3F5F0
:101A7000004F62D0D4F80080BB4B984500F01B812A
:101A800003F58063984500F01681FFF73DFD00EBFC
:101A9000800000EB80006568AD00B0FBF5F5B34F4A
:101AA000A7FB05356D092E01FFF72EFD00EB800029
:101AB00000EB80006568AD00B0FBF5FAFFF724FD90
:101AC00000EB800000EB80006568AD00B0FBF5F531
:101AD000A7FB05356D094FF0640909FB15A52D011C
:101AE0003235A7FB05356D0905F0F0053544FFF7E4
:101AF0000BFD00EB800000EB80006668B600B0FBD9
:101B0000F6F6FFF701FD00EB800000EB8000636854
:101B10009B00B0FBF3F0A7FB0030400909FB106904
:101B20004FEA091909F13209A7FB0937C7F343172F
:101B30002F44C8F80870BDE8F087D4F8008003F19E
:101B4000804303F5104398455CD003F580639845C6
:101B500058D0FFF7D9FC00EB800000EB80006568EF
:101B60006D00B0FBF5F5814FA7FB05356D092E0122
:101B7000FFF7CAFC00EB800000EB800065686D0099
:101B8000B0FBF5FAFFF7C0FC00EB800000EB800033
:101B900065686D00B0FBF5F5A7FB05356D094FF0E5
:101BA000640909FB15A5ED003235A7FB05356D0964
:101BB0006D0005F4F8753544FFF7A6FC00EB8000D6
:101BC00000EB800066687600B0FBF6F6FFF79CFC41
:101BD00000EB800000EB800063685B00B0FBF3F378
:101BE000A7FB03235B0909FB13694FEAC90909F144
:101BF0003209A7FB0937C7F342172F44C8F808700A
:101C0000BDE8F087FFF790FC00EB800000EB800060
:101C100065686D00B0FBF5F5544FA7FB05356D0900
:101C20002E01FFF781FC00EB800000EB800065686F
:101C30006D00B0FBF5FAFFF777FC00EB800000EBDE
:101C4000800065686D00B0FBF5F5A7FB05356D09F3
:101C50004FF0640909FB15A5ED003235A7FB0535EA
:101C60006D096D0005F4F8753544FFF75DFC00EB78
:101C7000800000EB800066687600B0FBF6F6FFF7A8
:101C800053FC00EB800000EB800063685B00B0FB5E
:101C9000F3F3A7FB03235B0909FB13694FEAC909A7
:101CA00009F13209A7FB0937C7F342172F44C8F8D7
:101CB0000870BDE8F087FFF737FC00EB800000EB11
:101CC00080006568AD00B0FBF5F5284FA7FB053532
:101CD0006D092E01FFF728FC00EB800000EB80006F
:101CE0006568AD00B0FBF5FAFFF71EFC00EB800065
:101CF00000EB80006568AD00B0FBF5F5A7FB05358E
:101D00006D094FF0640909FB15A52D013235A7FBBC
:101D100005356D0905F0F0053544FFF705FC00EBCE
:101D2000800000EB80006668B600B0FBF6F6FFF7B7
:101D3000FBFB00EB800000EB800063689B00B0FBC6
:101D4000F3F3A7FB03235B0909FB13694FEA0919A6
:101D500009F13209A7FB0937C7F343172F44C8F825
:101D60000870BDE8F08700BF001001401F85EB51EF
:101D70002DE9F04105460F4616469846069C2B680D
:101D80001B6837EA03030CBF01230023B3421ED1B3
:101D9000B4F1FF3FF3D02CB1FEF77CFCA0EB0800C0
:101DA0008442ECD22A68D36823F4D073D3602A68C3
:101DB000536923F001035361202385F8393085F8F6
:101DC0003A30002385F838300320BDE8F081002048
:101DD000BDE8F08158B310B5044690F839300BB324
:101DE000242384F839302268D36823F40053D36065
:101DF0002046FFF71BFE2268136923F4904313610A
:101E00002268536923F02A0353612268D36843F49C
:101E10000053D3600020E063202384F8393084F835
:101E20003A3010BD80F8383000F0A0FBD8E7012030
:101E300070472DE9F04182B01E4690F83930DBB290
:101E4000202B04D00223184602B0BDE8F0810446DE
:101E50000D469046002955D0002A55D090F83830CC
:101E6000012B01D10223EEE7012380F83830002353
:101E7000C363212380F83930FEF70CFC0746A4F831
:101E80002480A4F8268010E000963B4600228021A2
:101E90002046FFF76DFF002838D122682B88C3F356
:101EA000080353602369CBB90235E38C9BB2BBB105
:101EB000E38C9BB2013B9BB2E384A368B3F5805FE4
:101EC000E2D000963B46002280212046FFF750FFDB
:101ED000F0B923682A785A600135E6E70135E4E76E
:101EE00000963B46002240212046FFF741FF034673
:101EF00008B10323A7E7202284F83920002284F8C0
:101F00003820A0E701239EE701239CE703239AE7FB
:101F1000032398E72DE9F04188B0002400942D4B6D
:101F20001A6B42F004021A631A6B02F00402009268
:101F3000009A01941A6B42F001021A631A6B02F0C4
:101F400001020192019A02941A6B42F002021A6392
:101F50001B6B03F002030293029BDFF8848022468E
:101F6000C0214046FEF78AFF1B4F2246102138460B
:101F7000FEF784FF194D22464FF480412846FEF7B4
:101F80007DFFC0230393012604960594069403A9BC
:101F90004046FEF791FE10230393049605940694A1
:101FA00003A93846FEF788FE4FF4005303930494C8
:101FB000059403A92846FEF77FFE4FF48043039360
:101FC00004960594069403A92846FEF775FE08B00A
:101FD000BDE8F081003802400008024000040240E1
:101FE0000000024030B593B000201090C221119142
:101FF00001220E9290230F930C900D910A920B9355
:102000000890099106920793049005910292039318
:102010001E4C4FF47A750095022310AAA021204689
:10202000FFF7FEF8009502230EAAA0212046FFF735
:10203000F7F8009502230CAAA2212046FFF7F0F83A
:10204000009502230AAAA2212046FFF7E9F800958D
:10205000022308AAA4212046FFF7E2F800950223F4
:1020600006AAA4212046FFF7DBF80095022304AA64
:10207000A6212046FFF7D4F80095022302AAA62144
:102080002046FFF7CDF813B030BD00BF9C00002004
:1020900010B5084C012280212046FEF7EFFE0122F8
:1020A00010210548FEF7EAFE012240212046FEF7F6
:1020B000E5FE10BD000002400008024010B50446D5
:1020C000FEF744FA642382B221460248FFF7B1FECC
:1020D00010BD00BF3C01002008B5FEF7E1FA08BDC5
:1020E00008B5002280210248FEF7C8FE08BD00BFE7
:1020F0000000024008B5FFF775FFFFF7C9FFFFF7C3
:10210000EFFF08BDFEE7000008B50B480B4B03606E
:102110004FF41643436000238360C36003610C22C5
:1021200042618361C361FFF755FE00B908BD4FF4FA
:10213000B6710348FFF7E6FF3C01002000100140A4
:10214000942F000800B585B01548164B0360002396
:1021500043608360036183610362C362124A8262E7
:10216000C3600122C26103634261FEF745FB60B9AF
:102170000023009301220192029369460848FEF76A
:102180005FFC38B905B05DF804FB40F23B1107482D
:10219000FFF7B8FF40F245110448FFF7B3FF00BF57
:1021A000F4000020002001400100000F942F0008DF
:1021B00008B50C480C4B03600C4B43600023836054
:1021C000C3604FF48042026143618361C361036273
:1021D000FEF798FF00B908BD40F259110448FFF717
:1021E00091FF00BF9C000020005C0040A086010021
:1021F000942F000800B595B000220092254B196C71
:1022000041F0805119641B6C03F080530093009BD4
:10221000019221490B6823F4404343F480430B604F
:102220000B6803F440430193019B022307930123AE
:102230000A9310230B930D9207A8FFF715FAF0B934
:102240000F2302930021039104910591069102A8A6
:10225000FFF7A8F8C0B9FFF751F9104BA3FB003006
:102260008009FEF7FDFC0420FEF710FD0022114658
:102270004FF0FF30FEF7C2FC15B05DF804FB4FF4E1
:1022800084710748FFF73EFF4FF48B710448FFF756
:1022900039FF00BF0038024000700040D34D62108B
:1022A000942F000800B585B000900123019300230E
:1022B000029369460548FEF7C3FB10B905B05DF807
:1022C00004FB4FF4FE710248FFF71CFFF4000020EE
:1022D000942F000838B50546FFF7E4FF0D48FEF7D8
:1022E00079FC022814D00B4C29462046FEF7A8FBA7
:1022F0002046FEF7ABFA64212046FEF743FB20465A
:10230000FEF79BFB05462046FEF71CFB284638BD22
:102310000025FBE7F400002008B5034B53F820002C
:10232000FFF7D8FF08BD00BF4C2F00082DE9F04192
:102330000020FFF7F1FFDFF8A880C8F800000120B7
:10234000FFF7EAFF1C4F38600220FFF7E5FF1B4E46
:1023500030600320FFF7E0FF194D28601948FFF7B0
:10236000ADFE194CD8F800201849204600F0B6F907
:102370002046FFF7A3FE3A681549204600F0AEF963
:102380002046FFF79BFE32681249204600F0A6F96E
:102390002046FFF793FE2A680F49204600F09EF979
:1023A0002046FFF78BFE0D48FFF788FE4FF4FA70CA
:1023B000FFF792FEBDE8F08198010020F0000020B8
:1023C00094010020A42F00087C010020A82F000801
:1023D000B02F0008B82F0008C02F0008C82F000831
:1023E0009001002008B5FEF72FF9FFF703FFFFF774
:1023F00091FDFFF789FEFFF7A5FEFFF7D9FEFFF776
:1024000079FEFFF793FFFCE710B582B0002400943B
:10241000214B5A6C42F480425A645A6C02F4804256
:102420000092009A01941A6C42F080521A641B6C5C
:1024300003F080530193019B0320FEF7CDFB22465E
:1024400021466FF00B00FEF7D9FB224621466FF0C4
:102450000A00FEF7D3FB224621466FF00900FEF783
:10246000CDFB224621466FF00400FEF7C7FB224653
:1024700021466FF00300FEF7C1FB224621466FF0B4
:102480000100FEF7BBFB224621464FF0FF30FEF76E
:10249000B5FB02B010BD00BF003802400268134B0C
:1024A0009A4200D0704730B587B00024009403F5FD
:1024B0008C335A6C42F480725A645B6C03F4807300
:1024C0000093009B0C23019303250295039401A91B
:1024D0000748FEF7F1FB072301930295039401A936
:1024E0000448FEF7E9FB07B030BD00BF0020014003
:1024F00000080240000002400268184B9A4200D0D7
:102500007047F0B587B04FF400730193122702971C
:102510000126039603250495042405940DEB04017C
:102520000F48FEF7C9FB4FF480730193029703969F
:10253000049505940DEB04010A48FEF7BDFB00234A
:102540000093094B1A6C42F400021A641B6C03F4EA
:1025500000030093009B07B0F0BD00BF005C00408B
:102560000008024000000240003802400268164B9A
:102570009A4200D07047F0B587B000230093134B08
:102580005A6C42F010025A645B6C03F01003009323
:10259000009B4FF480630193022702970126039664
:1025A000032504950724059401A90948FEF784FB37
:1025B00040230193029703960495059401A90548C9
:1025C000FEF77AFB07B0F0BD001001400038024072
:1025D00000000240000402407047FEE7FEE7FEE70D
:1025E000FEE770477047704708B5FEF747F8FEF7FB
:1025F0005EFB08BD0F49D1F8883043F47003C1F881
:1026000088300D4B1A6842F001021A600020986071
:102610001A6822F0847222F480321A60074A5A60E3
:102620001A6822F480221A60D8604FF000638B6031
:10263000704700BF00ED00E0003802401030002479
:10264000DFF834D0002103E00C4B5B5843500431D9
:102650000B480C4B42189A42F6D30B4A02E0002377
:1026600042F8043B094B9A42F9D3FFF7C3FF00F04D
:1026700011F8FFF7B7FE7047000002201030000885
:10268000000000207000002070000020A001002049
:10269000FEE7000070B50D4E0D4CA41BA4100025E4
:1026A000A54209D10B4E0C4C00F044FCA41BA41015
:1026B0000025A54205D170BD56F825309847013553
:1026C000EEE756F8253098470135F2E70830000864
:1026D00008300008083000080C3000080EB400B5BF
:1026E0009CB04FF402711DABADF81410029006902F
:1026F0006FF000410A48049107914FF6FF7153F8BB
:10270000042BADF816100068019302A900F066F8DA
:10271000029B00221A701CB05DF804EB03B07047F6
:102720000C0000202DE9F0478E689E4282460C4640
:102730009146984635D88A8912F4906F31D0256831
:1027400009696F1A6569022305EB450595FBF3F5E9
:1027500008F101033B449D4238BF1D46530531D566
:10276000294600F039FB064650B90C23CAF8003060
:10277000A38943F04003A3814FF0FF30BDE8F08709
:102780003A46216900F0B4FAA38923F4906343F038
:102790008003A381266165613E44ED1B2660A56030
:1027A0004646464528BF464632464946206800F020
:1027B000AAFAA3689B1BA36023681E44266000201E
:1027C000BDE8F0872A4600F065FB06460028E1D107
:1027D0002169504600F0B2FAC7E700002DE9F04F3A
:1027E0009DB0804603938B891C060D4616460FD577
:1027F0000B696BB9402100F0EFFA2860286128B915
:102800000C23C8F800304FF0FF30C5E040236B6167
:102810000023099320238DF8293030238DF82A30A6
:102820004FF0010B37463C4614F8013B002B3CD1DE
:10283000B7EB060A0BD05346324629464046FFF70F
:1028400071FF013000F0A380099B534409933B784A
:10285000002B00F09C8000234FF0FF32049307937D
:10286000059206938DF853301A930522217850482B
:10287000FDF776FE671C049BD8B9D90644BF202219
:102880008DF853201A0744BF2B228DF8532022784D
:102890002A2A16D0079A00210A20274601343B78BD
:1028A000303B092B51D9C9B111E0252BC0D02746A7
:1028B000B9E73F4A801A0BFA00F0184304903C46EF
:1028C000D3E7039A111D12680391002A01DB0792D6
:1028D00004E0524243F00203079204933B782E2B0C
:1028E0000ED17B782A2B07F1010132D1039B1A1DEF
:1028F0001B680392002BB8BF4FF0FF3302370593DC
:102900002C4C397803222046FDF72AFE38B14023AB
:10291000001B03FA00F0049B03430493013739784A
:1029200025488DF8281006227E1CFDF719FE002888
:1029300035D0224BFBB9039B073323F00703083341
:102940000393099B4B4409936CE700FB023201217E
:10295000A3E70023059318460A240F4601313A786D
:10296000303A092A03D9002BCAD00590C8E704FBE6
:1029700000200123F1E703AB00932A46104B04A982
:102980004046AFF30080B0F1FF3F8146D9D1AB891B
:102990005B063FF538AF09981DB0BDE8F08F03AB7B
:1029A00000932A46064B04A9404600F081F8EAE766
:1029B000CC2F0008D22F0008D62F000800000000FE
:1029C000252700082DE9F04791461F468A680B69C4
:1029D000DDF820809342B8BF1346C9F8003091F863
:1029E000432006460C4612B10133C9F80030236873
:1029F000990642BFD9F800300233C9F80030256883
:102A000015F0060507D104F1190AE368D9F800208A
:102A10009B1A9D4229DB94F843302268003318BF8B
:102A2000012392062ED404F1430239463046C047B2
:102A3000013021D02368E568D9F8002003F00603AF
:102A4000042B08BFAD1AA36822690CBF25EAE575FF
:102A500000259342C4BF9B1AED184FF000091A34A9
:102A60004D451BD10020BDE8F08701235246394671
:102A70003046C047013003D14FF0FF30BDE8F0874A
:102A80000135C2E7E1185A1C302081F84300224486
:102A900094F8451082F843100233C4E7012322461C
:102AA00039463046C0470130E6D009F10109D7E781
:102AB0002DE9F04317460A7E85B06E2A98460646F1
:102AC0000C460C9B01F1430E00F0BC801AD8632A1F
:102AD0002ED00AD8002A00F0C880582A00F08A8038
:102AE00004F1420584F842202AE0642A01D0692AD0
:102AF000F6D121681A6811F0800F23D0111D1960DA
:102B0000136827E0732A00F0B48008D86F2A2AD00F
:102B1000702AE5D10A6842F020020A6003E0752AB3
:102B200021D0782ADCD1782284F845206E4964E0EF
:102B30001A6801F14205111D1960136884F84230CA
:102B40000123A3E011F0400F02F104011960D7D076
:102B5000B2F90030002B03DA2D225B4284F84320C7
:102B600062490A2217E02068196810F0800F03D02C
:102B7000081D18600B6806E010F0400F01F104001A
:102B80001860F7D00B8859496F2A14BF0A2208220F
:102B9000002084F843006568A560002DC0F29C8089
:102BA000206820F004002060002B3FD1002D40F071
:102BB00095807546082A0BD12368DA0708D5236962
:102BC00062689A42DEBF302305F8013C05F1FF350B
:102BD000AEEB05032361CDF800803B4603AA2146F6
:102BE0003046FFF7EFFE013055D14FF0FF3005B012
:102BF000BDE8F08381F845203C492268186812F04E
:102C0000800F00F104051D6001D0036802E0550645
:102C1000FBD50388D00744BF42F0200222601BB9D5
:102C2000226822F0200222601022B1E77546B3FB31
:102C3000F2F002FB1033CB5C05F8013D034600289F
:102C4000F5D1B7E708681A68496910F0800F04D019
:102C5000101D18601368196007E010F0400F02F1B2
:102C6000040018601368F6D01980002323617546AC
:102C7000B1E71A68111D19601568626800212846BD
:102C8000FDF76EFC08B1401B6060636823610023A0
:102C900084F843309FE723692A4639463046C047C7
:102CA0000130A2D023689B0707D5002504F119093C
:102CB000E368039A9B1A9D4205DBE068039B9842F8
:102CC000B8BF184693E701234A4639463046C04705
:102CD00001308AD00135EBE7002BA7D10B7884F8BF
:102CE000423004F1420565E7EE2F0008DD2F0008B1
:102CF00010B5431E0A44914200D110BD11F8014B9A
:102D000003F8014FF7E7884210B501EB020303D83F
:102D1000421E99420CD110BD9842F9D28118D21AA4
:102D2000D34200D110BD13F8014D01F8014DF7E772
:102D300011F8014B02F8014FEBE7000038B50546EA
:102D4000002945D051F8043C0C1F002BB8BFE418F3
:102D500000F0D6F81F4A1368104633B96360146058
:102D60002846BDE8384000F0CCB8A3420CD9216811
:102D70006218934204BF1A685B68636004BF52180C
:102D800022600460ECE713465A680AB1A242FAD9FD
:102D900019685818A0420BD1206801445818824283
:102DA0001960DDD1106852685A6001441960D7E794
:102DB00002D90C232B60D3E7206821188A4204BF74
:102DC00011685268626004BF091821605C60C7E73F
:102DD00038BD00BF8C00002070B5CD1C25F0030568
:102DE00008350C2D38BF0C25002D064601DBA94205
:102DF00003D90C233360002070BD00F081F8234A12
:102E00001468214691B9224C23681BB9304600F062
:102E100067F820602946304600F062F8431C26D14E
:102E20000C233360304600F06CF8E4E70B685B1B62
:102E30001AD40B2B0FD90B60CD50CC18304600F0B4
:102E400060F804F10B00231D20F00700C31A1BD00B
:102E50005A42E25070BD8C420DBF63684B6863609C
:102E6000136018BF0C46E9E70C464968CAE7C41C62
:102E700024F00304A04205D0211A304600F030F8B7
:102E80000130CDD02560D9E770BD00BF8C00002097
:102E900090000020F8B5074614460E4621B91146A9
:102EA000BDE8F840FFF798BF22B9FFF747FF254676
:102EB0002846F8BD00F026F884420FD9214638464E
:102EC000FFF78AFF05460028F2D031462246FFF779
:102ED0000FFF31463846FFF731FFE9E73546E7E7B0
:102EE00038B5064C002305460846236000F014F868
:102EF000431C02D1236803B12B6038BD9C01002024
:102F00007047704751F8040C0028A0F10400BCBFC2
:102F10000B58C01870470000044A05491368002B7D
:102F200008BF0B46184410601846704794000020F4
:102F3000A0010020F8B500BFF8BC08BC9E46704751
:0C2F4000F8B500BFF8BC08BC9E46704706
:102F4C0000000000010000000C0000000D0000005B
:102F5C0090000000C200000090000000C2000000C1
:102F6C0090000000C200000090000000C2000000B1
:102F7C00000000000000000001020304060708091D
:102F8C0000000000010203042E2E2F5372632F6DDC
:102F9C0061696E2E630000007B000000313A2564ED
:102FAC003B000000323A25643B000000333A2564B4
:102FBC003B000000343A25643B0000007D0000001B
:102FCC00232D302B2000686C4C0065666745464706
:102FDC000030313233343536373839414243444589
:102FEC0046003031323334353637383961626364F8
:042FFC006566000006
:083000006CD2FF7F010000000B
:04300800F5010008C6
:04300C00D1010008E6
:1030100001000000100000000024F4001000002057
:1030200000000000000000000000000000000000A0
:103030000000000000000000000000000000000090
:103040000000000000000000000000000000000080
:103050000000000000000000000000000000000070
:103060000000000000000000000000000000000060
:103070000000000000000000000000000000000050
:040000050800264188
:00000001FF
